:020000040800F2
:100000000000012089040008D9040008D904000870
:10001000D9040008D9040008D90400080000000031
:10002000000000000000000000000000D9040008EB
:10003000D904000800000000D9040008D904000811
:1000400000000000D9040008D9040008D904000801
:10005000D9040008D9040008D9040008D90400080C
:10006000D9040008D9040008D9040008D9040008FC
:10007000D9040008D9040008D9040008D9040008EC
:10008000D9040008D9040008D904000800000000C1
:10009000000000000000000000000000D90400087B
:1000A000D9040008D9040008D9040008D9040008BC
:1000B000D9040008D9040008D9040008D9040008AC
:1000C000D9040008D9040008D9040008D90400089C
:1000D000D9040008D9040008D90400080000000071
:1000E000D9040008D9040008D90400080000000061
:1000F000000000000000000000000000D90400081B
:1001000000000000D9040008D9040008D904000840
:1001100000000000000000000000000000000000DF
:10012000D9040008D9040008D9040008D90400083B
:10013000D9040008000000000000000000000000DA
:10014000000000000000000000000000D9040008CA
:10015000D9040008D9040008D9040008D90400080B
:10016000D9040008D90400080000000000000000C5
:10017000000000000000000000000000000000007F
:10018000000000000000000000000000000000006F
:04019000D904000886
:1001940010B5054C237833B9044B13B10448AFF3BD
:1001A40000800123237010BD000000200000000027
:1001B4002405000808B5034B1BB103490348AFF3FA
:1001C400008008BD00000000040000202405000891
:1001D40080B483B000AF0346FB7100BF074B1B68BC
:1001E40003F08003002BF9D0054AFB79136000BFAC
:1001F4000C37BD465DF8047B704700BF001001401A
:100204000410014080B582B000AF786006E07B68DE
:100214005A1C7A601B781846FFF7DAFF7B681B7854
:10022400002BF4D100BF00BF0837BD4680BD0000DD
:1002340080B582B000AF0346FB71FB79092B0AD964
:10024400FB790F4AA2FB0323DB08DBB23033DBB2BA
:100254001846FFF7BDFFFA79094BA3FB0213D9082F
:100264000B469B000B445B00D31ADBB23033DBB28A
:100274001846FFF7ADFF00BF0837BD4680BD00BF7D
:10028400CDCCCCCC80B582B000AF03460A46FB711E
:100294001346BB71FB79124AD35CBA799A421AD0DD
:1002A400FB790F49BA79CA540E48FFF7ABFFFB79C3
:1002B4001846FFF7BDFF2020FFF78AFFBB79002B0C
:1002C40001D0312300E030231846FFF781FF0648B0
:1002D400FFF798FF00E000BF0837BD4680BD00BFB0
:1002E4001C0000203C0500084405000880B483B0CD
:1002F40000AF786000BF7B685A1E7A60002BFAD189
:1003040000BF00BF0C37BD465DF8047B704700009A
:1003140080B584B000AF0023FB6039E0234B1B6839
:10032400224A43F0F0031360204B1B68FA6804323E
:10033400012101FA02F2D24311461C4A0B40136018
:10034400C820FFF7D3FF0023BB601BE0184B1B68DA
:100354000121BA6801FA02F21340002B0CBF0123F9
:100364000023DBB2FB71134ABB689B001A44FB6891
:1003740013441B78FA7911461846FFF783FFBB68CC
:100384000133BB60BB68032BE0DDFB680133FB601A
:10039400FB68032BC2DD054B1B68044A43F0F003E2
:1003A400136000BF1037BD4680BD00BF1404024077
:1003B400100002405005000880B500AF274B1B68B1
:1003C400264A43F003031360254B1B68244A43F079
:1003D40010031360234B1B68224A23F0FF031360AE
:1003E400214B1B68204A23F0FF0313601D4B1B683D
:1003F4001C4A23F4701313601A4B1B68194A43F404
:1004040020131360194B1B68184A23F47F6313608D
:10041400164B1B68154A43F4EE631360144B1B68B8
:10042400134A23F47F431360114B1B68104A43F4AF
:10043400AA4313600F4B1B680E4A43F0F00313608A
:100444000D4B40F283621A600C4B42F20C021A60AC
:100454000B48FFF7D7FEFFF75BFFFCE7303802409D
:1004640044380240000002400C00024024000240D4
:100474000004024014040240081001400C10014022
:10048400480500080D488546AFF300800C480D4927
:100494000D4A002302E0D458C4500433C4188C42DB
:1004A400F9D30A4A0A4C002301E013600432A24241
:1004B400FBD300F011F8FFF77FFFFEE700000120F7
:1004C4000000002000000020680500080000002053
:1004D4002C000020FEE7000070B50D4B0D4D5B1B9A
:1004E4009C100026A64209D100F01AF80A4D0B4BC5
:1004F4005B1B9C100026A64205D170BD55F8043B39
:1005040098470136EEE755F8043B98470136F2E781
:10051400600500086005000860050008640500081F
:10052400F8B500BFF8BC08BC9E467047F8B500BFDC
:08053400F8BC08BC9E467047AC
:10053C0042544E20000000000D0A00005265616418
:10054C00790D0A00000102030405060708090A0BCD
:04055C000C0D0E0F65
:04056000B9010008D5
:0405640095010008F5
:040000050800048962
:00000001FF
